:2000000049C2FFFFFFFFFFFFFFFFFFFF54C2FFFFFFFFFFFFFFFFFFFFFFFFFFFFFFFFFFFFDB
:20002000FFFFFFFFFFFF0F93002700BF04E003BF0CEF02BF09B7026009BF0F9108950F9313
:20004000002700932F000093220003E000932E000FEF00932D0002EB00932C0009B70068CC
:2000600009BF0F91089508950F930F9108950F930FEFA8950A95F1F70A95F1F7A8950A9538
:20008000F1F70A95F1F7A8950A95F1F70F91089592988A9A00E002B903E309B900270BB974
:2000A000599A08E00AB90EE003B907D0929A08955E9A0CB95E9BFECF089502E00093610062
:2000C0000895BB98C39ABC98C49ABD98C59AB898C09AB998C19ABA98C29AC09AC19AC29A58
:2000E000C39AC49AC59A01E00093620000E00093640000E00093630071607D7F089570FF8A
:2001000004C071FD02C010D07E7F089570FD0BC0009162000A9500936200002321F401E099
:2001200000936200716008957D7F03E0009365005FD00091640010916300011771F400914F
:2001400065000A9500936500002391F700916400002311F0726007C006C0726000916300BA
:2001600000936400E2CF0895B89AB99ABA9ABB98C39ABC98C49ABD98C59AC39AC49AC59A11
:20018000C098C198C2980895BB9ABC9ABD9AB898C09AB998C19ABA98C29AC09AC19AC29AA0
:2001A000C398C498C59808950FEF8894B29B01C00894001F8894B19B01C00894001F8894AB
:2001C000B09B01C00894001F009508950FEF8894B59B01C00894001F8894B49B01C0089478
:2001E000001F8894B39B01C00894001F00950895BBDFECDF029500936300C6DFD5DF1F93CB
:2002000010916300012B009363001F9108951F9371FF06C0FCD000916400002319F424D09E
:200220003FD020C05BD0929A33DF21DF05EF40DF0DE0B2D000270093660041D000916700BB
:20024000ABD000916800A8D000916900A5D000916A00A2D00091660007709ED00AE09CD0A4
:200260007D7F92981F9108953F93929A11DFFFDE33E005EF1DDF0DE08FD0002700936600D1
:200280001ED00FE089D000916600077085D00AE083D07D7F3A9569F792983F9101D0089595
:2002A00000270BBB08BB02BB0FEF0ABB07BB01BB05B7006905BF006205BF88950895009136
:2002C0006E00003051F00C70889407958894079563D000916E0003705FD00895FF93EF93CE
:2002E00000916400013419F4F3E0E4E734C0013219F4F3E0E8E72FC0043419F4F3E0ECE779
:200300002AC0023419F4F3E0E0E825C0013119F4F3E0E4E820C0023219F4F3E0E8E81BC0B3
:20032000043219F4F3E0ECE816C0023119F4F3E0E0E911C0043119F4F3E0E4E90CC000277B
:2003400000936700009368000093690000936A00EF91FF9108950591009367000591009349
:200360006800059100936900059100936A00EF91FF9108950100000000000001000000023F
:20038000000000040000020000000400000400000001000000020000FF93EF931F931091E5
:2003A0006600100F109366000F70F3E0E0ECE00F0027F01F04917CDE1F91EF91FF91089520
:2003C0005556595A6566696A9596999AA5A6A9AA01B5086101BD0BE001BDA895746001E0AD
:2003E00000936B007B7F089572FF02C0A8957B7F089572FD0BC000916B000A9500936B008E
:20040000002321F001E000936B00746008951F938B98939A8C98949A8D98959A8E98969A5A
:200420001BD003E0009370001CD000916E0010916C00011751F4009170000A9500937000F3
:20044000002391F700916E0005C000916C0000936E00E7CF1F910895939A949A959A969A72
:2004600008950FEF8894869B01C00894001F8894859B01C00894001F8894849B01C00894D8
:20048000001F8894839B01C00894001F009500936C000895A8950FED0DBF05B70F7705BF4B
:2004A000899A919895DFBFDD0CDE7894A8959CDF26DEADDEFCCF0F930FB70F930DEE02BF12
:0C04C00025DE97DF0F910FBF0F911895FC
:00000001FF
