:100000000C9462000C948A000C948A000C94920365
:100010000C94C2030C949E030C948A000C948A00E6
:100020000C948A000C948A000C948A000C9420038F
:100030000C948A000C948A000C948A000C948A0018
:100040000C94D6020C948A000C948A000C948A00BA
:100050000C948A000C948A000C948A000C948A00F8
:100060000C948A000C948A000000000024002700F1
:100070002A0000000000250028002B0000000000DE
:1000800023002600290004040404040404040202DA
:100090000202020203030303030301020408102007
:1000A0004080010204081020010204081020000012
:1000B0000008000201000003040700000000000027
:1000C0000000BF0611241FBECFEFD8E0DEBFCDBFBA
:1000D00011E0A0E0B1E0E2ECFEE002C005900D927C
:1000E000A03EB107D9F722E0A0EEB1E001C01D9219
:1000F000AA30B207E1F710E0C2E6D0E004C02197D1
:10010000FE010E945907C136D107C9F70E94E603D4
:100110000C945F070C9400002091F8013091F901D4
:100120002817390769F09093F9018093F801E0915D
:100130000302F0910402309719F08091FA010994BA
:100140000895833081F028F4813099F08230A9F04D
:1001500008958730A9F08830C9F08430B1F48091D7
:1001600080008F7D03C0809180008F778093800016
:10017000089584B58F7784BD089584B58F7DFBCFB6
:100180008091B0008F778093B00008958091B00087
:100190008F7DF9CFCF93DF93282F30E0F901E2551F
:1001A000FF4F8491F901E656FF4FD491F901EA57C8
:1001B000FF4FC491CC23A1F081110E94A100EC2F2C
:1001C000F0E0EE0FFF1FE458FF4FA591B491EC91C2
:1001D000ED2381E090E009F480E0DF91CF91089574
:1001E00080E090E0FACF1F93CF93DF93282F30E089
:1001F000F901E255FF4F8491F901E656FF4FD49182
:10020000F901EA57FF4FC491CC23A9F0162F8111B1
:100210000E94A100EC2FF0E0EE0FFF1FEE58FF4F01
:10022000A591B4918FB7F894EC91111108C0D095B5
:10023000DE23DC938FBFDF91CF911F910895DE2BDA
:10024000F8CFCF93DF9390E0FC01E656FF4F249167
:100250008A579F4FFC0184918823C9F090E0880F52
:10026000991FFC01E859FF4FA591B491FC01EE588C
:10027000FF4FC591D49161110DC09FB7F8948C9137
:10028000209582238C938881282328839FBFDF9128
:10029000CF910895623051F49FB7F8943C91822F2A
:1002A000809583238C93E8812E2BEFCF8FB7F89422
:1002B000EC912E2B2C938FBFEACF8E5080648093CD
:1002C0007C0080917A00806480937A0080917A002B
:1002D00086FDFCCF809178009091790008953FB71A
:1002E000F8948091EC019091ED01A091EE01B09114
:1002F000EF0126B5A89B05C02F3F19F00196A11D5F
:10030000B11D3FBFBA2FA92F982F8827BC01CD015F
:10031000620F711D811D911D42E0660F771F881FBE
:10032000991F4A95D1F708958F929F92AF92BF92ED
:10033000CF92DF92EF92FF924B015C010E946F011E
:100340006B017C010E946F016C197D098E099F0968
:10035000683E734081059105A8F321E0821A910857
:10036000A108B10888EEC80E83E0D81EE11CF11C7C
:1003700081149104A104B10429F7FF90EF90DF905C
:10038000CF90BF90AF909F908F9008958627082EB2
:100390008295807F8025092E982F82958F70082660
:1003A000869598278927880F880F880F80250895BC
:1003B000CF93DF93EC01809108028111FCCF65E0BF
:1003C0008FEF9FEF0E94C6012DE02093210129E1CC
:1003D0002093220168810E94C601E881F0E024E0B8
:1003E000F595E7952A95E1F7E153FE4F208120939B
:1003F0002301E881EF70F0E0E153FE4F208120936C
:10040000240169810E94C601E981F0E034E0F5959C
:10041000E7953A95E1F7E153FE4F208120932501BE
:10042000E981EF70F0E0E153FE4F20812093260137
:1004300080959095FC0144E0F695E7954A95E1F7A3
:10044000EF70FF27E153FE4F208120932701FC012D
:10045000EF70FF27E153FE4F208120932801FC011C
:10046000EF2FFF27E295EF70E153FE4F208120939D
:100470002901E92FFF27EF70FF27E153FE4F80810D
:1004800080932A0182E18093090210920702109260
:1004900006021092050261E08AE00E94F30081E00A
:1004A00080930802DF91CF9108950F931F93CF930C
:1004B000DF93C0E0D1E061E089910E942101FE015B
:1004C000319761E080810E94F30081E0C430D80759
:1004D00091F7C4E0D1E008E011E062E089910E9468
:1004E00021010C171D07C9F7DF91CF911F910F91C3
:1004F00008950F931F93CF93DF93C0E0D1E061E0A5
:1005000089910E942101FE01319760E080810E9463
:10051000F30081E0C430D80791F704E011E0E8016E
:1005200062E089910E942101E1E0C830DE07C1F755
:10053000F80181918F010E94CA00892B31F4DF916B
:10054000CF911F910F910C945502C017D10781F7DD
:1005500062E370E080E090E00E94940183B7817FC5
:10056000846083BF83B7816083BF90917A001092CB
:100570007A00809164008F6E809364008BB38760F3
:100580008BBB8091680087608093680080E685BFA0
:1005900080E485BF889583B78E7F83BF8091640098
:1005A00080718093640090937A00C9CF1F920F925C
:1005B0000FB60F9211242F933F938F939F93AF9376
:1005C000BF938091E8019091E901A091EA01B09177
:1005D000EB013091E70123E0230F2D3758F5019609
:1005E000A11DB11D2093E7018093E8019093E901DB
:1005F000A093EA01B093EB018091EC019091ED01A1
:10060000A091EE01B091EF010196A11DB11D809363
:10061000EC019093ED01A093EE01B093EF01BF9137
:10062000AF919F918F913F912F910F900FBE0F909F
:100630001F90189526E8230F0296A11DB11DD2CF59
:100640001F920F920FB60F9211241F932F933F9377
:100650004F935F936F937F938F939F93AF93BF93CA
:10066000CF93DF93EF93FF9380910802882319F1D2
:100670008091050291E0980F9093050281111BC0B3
:10068000C09107021091180180910902C81768F102
:1006900060E08AE00E94F30060E0812F0E94F30096
:1006A000109208028091E2019091E30101969093EB
:1006B000E3018093E20180910502883010F01092EE
:1006C0000502FF91EF91DF91CF91BF91AF919F9183
:1006D0008F917F916F915F914F913F912F911F91DA
:1006E0000F900FBE0F901F901895EC2FF0E0E75E73
:1006F000FE4F608120910602D1E0D20FD093060216
:1007000081E090E001C0880F2A95EAF76823812FE5
:100710000E94F300D630A8F210920602CF5FC09379
:100720000702C9CF1F920F920FB60F921124109299
:1007300068000F900FBE0F901F9018951F920F9298
:100740000FB60F9211242F933F934F935F936F93A4
:100750007F938F939F93AF93BF93EF93FF930E94E9
:100760009203FF91EF91BF91AF919F918F917F91F4
:100770006F915F914F913F912F910F900FBE0F900E
:100780001F9018951F920F920FB60F9211242F935E
:100790003F934F935F936F937F938F939F93AF9309
:1007A000BF93EF93FF930E949203FF91EF91BF914C
:1007B000AF919F918F917F916F915F914F913F91F9
:1007C0002F910F900FBE0F901F901895CF93DF932E
:1007D000CDB7DEB72E970FB6F894DEBF0FBECDBFF4
:1007E000789484B5826084BD84B5816084BD85B50C
:1007F000826085BD85B5816085BD80916E00816018
:1008000080936E00109281008091810082608093BD
:1008100081008091810081608093810080918000BF
:100820008160809380008091B10084608093B100EA
:100830008091B00081608093B00080917A008460E4
:1008400080937A0080917A00826080937A00809110
:100850007A00816080937A0080917A00806880932A
:100860007A001092C1008AE0809318018EE0E1ECDA
:10087000F1E0DE01119601900D928A95E1F77E017B
:1008800023E0E20EF11C11E0812CB4E29B2EB4EFC8
:10089000AB2EB12C00E4402E0FE1502E612C712CB8
:1008A000F701219131917F0150E040E0C501B40191
:1008B0000E943707CA01B901A30192010E943707BC
:1008C000223031054105510508F031C21F5F173054
:1008D00039F761E08DE00E94210161E08BE00E9428
:1008E000210161E08BE00E94F30065E070E080E0B0
:1008F00090E00E9494018EE00E945D01843F91404F
:100900002CF48091E5018F5F8093E5018FE00E94D8
:100910005D01843F91402CF48091E5018D5F8093CF
:10092000E50180E10E945D01843F91402CF48091BB
:10093000E5018B5F8093E50181E10E945D01843FC9
:1009400091402CF48091E501895F8093E50160E09E
:100950008BE00E94F30080916D00806480936D00B5
:1009600080916D00806880936D0080916B00816044
:1009700080936B0080916B00826080936B000E947B
:10098000790260E0C62E60E0D62E7AE0B72EECE069
:10099000AE2EF9E09F2EA8E08A2E85E0782E92E018
:1009A000692E2BE0522E34E0432E43E0342E57E0E4
:1009B000252E00E08091F7010817A0F180E020913A
:1009C000F8013091F9012230310509F029C1109266
:1009D000E60161E08DE00E94F30065E070E080E0F8
:1009E00090E00E9494011A8219828091E501898326
:1009F000CE0101960E94D801809108028111FCCF9E
:100A00006AE070E080E090E00E94940160E08DE098
:100A10000E94F3000E947902C114D10451F20E9495
:100A20000000BBCFE02EF12CE091F401F091F50134
:100A3000EE0DFF1D60E080810E94F30010E08091C8
:100A4000F601181708F0DFC08091F701E091F0017E
:100A5000F091F101EE0DFF1D189FE00DF11D112425
:100A60009091FA018081981366C08FB7F8944091F5
:100A7000E8015091E9016091EA017091EB018FBFAB
:100A80008091FB019091FC01A091FD01B091FE01CC
:100A9000481B590B6A0B7B0B80910102909102025B
:100AA000B0E0A0E0481759076A077B0778F0E091AB
:100AB000F201F091F301E10FF11D80810E94CA0063
:100AC000892B21F483E090E00E948C008FB7F8948A
:100AD0004091E8015091E9016091EA017091EB01C8
:100AE0008FBF8091FB019091FC01A091FD01B0911D
:100AF000FE01481B590B6A0B7B0B8091FF01909103
:100B00000002B0E0A0E0481759076A077B0788F0A9
:100B1000E091F201F091F301E10FF11D80810E945B
:100B2000CA00019731F482E090E00E948C0010929C
:100B3000FA011F5F84CF8FB7F8944091E80150917C
:100B4000E9016091EA017091EB018FBF8091FB0197
:100B50009091FC01A091FD01B091FE01481B590B41
:100B60006A0B7B0B8091FF0190910002B0E0A0E046
:100B7000481759076A077B07E0F2E091F201F0910C
:100B8000F301E10FF11D80810E94CA00892B89F6D3
:100B9000E091F401F091F501EE0DFF1D61E080811F
:100BA0000E94F3008091F701E091F001F091F101D2
:100BB000EE0DFF1D189FE00DF11D112480819FB7E0
:100BC000F8944091E8015091E9016091EA01709137
:100BD000EB019FBF4093FB015093FC016093FD012B
:100BE0007093FE01882309F4E9CE9091FA018917E8
:100BF00009F4E4CE8093FA0181E090E00E948C0039
:100C00008091FA01DCCE8091F4019091F501E80E1B
:100C1000F91E61E0F70180810E94F3000F5FCACEE8
:100C2000EDEDE80FE23208F05CC00E2E000CFF0B79
:100C3000E45EF94F0C9459076D0671067106710652
:100C400071067106710669067106710671067106F4
:100C500071063E064206440646064C064F065206FC
:100C6000550658065B067106710671067106710617
:100C7000710671065E0661066406660680E1809371
:100C8000E40106C081E0FBCF86E0F9CF2092E401C9
:100C900081E08093E60127C03092E401F9CF4092D1
:100CA000E401F6CF5092E401F3CF6092E401F0CF7B
:100CB0007092E401EDCF8092E401EACF9092E401DA
:100CC000E7CFA092E401E4CF8DE0D9CFB092E40168
:100CD000DFCFFEE0F093E401DBCF2FE02093E401CF
:100CE000D7CF8111D5CF8091E601882309F494CE26
:100CF0008091E50189838091E4018A8361E08DE040
:100D00000E94F30065E070E080E090E00E949401B2
:100D1000CE0101960E94D801809108028111FCCF7A
:100D200062E370E080E090E00E94940175CE16309E
:100D300009F4CFCD1092800088E0809381008091EB
:100D40008100182B10938100309389002093880034
:100D500080916F00826080936F0061E08091180144
:100D60000E94210160E08BE00E94210161E08AE0A5
:100D70000E94210160E08AE00E94F300AACD0F9357
:100D80001F93CF93DF9384E091E09093F3018093DE
:100D9000F20180E091E09093F5018093F40184E00A
:100DA0008093F6018093F70188E091E09093F10140
:100DB0008093F0011092FB011092FC011092FD0152
:100DC0001092FE0182E390E0909300028093FF0175
:100DD00088EE93E090930202809301021092040245
:100DE000109203021092FA011092F9011092F80188
:100DF000C0E08091F601C817A8F5D0E08091F70116
:100E0000D817C0F40D2F10E0E091F401F091F50136
:100E1000E00FF11F61E080810E942101E091F40167
:100E2000F091F501E00FF11F61E080810E94F30075
:100E3000DF5FE4CF0C2F10E0E091F201F091F301BD
:100E4000E00FF11F60E080810E942101E091F2013A
:100E5000F091F301E00FF11F61E080810E94F30047
:100E6000CF5FC7CFDF91CF911F910F910895A1E27E
:100E70001A2EAA1BBB1BFD010DC0AA1FBB1FEE1F14
:100E8000FF1FA217B307E407F50720F0A21BB30B5F
:100E9000E40BF50B661F771F881F991F1A9469F7DB
:100EA00060957095809590959B01AC01BD01CF0137
:100EB0000895EE0FFF1F0590F491E02D0994F8942A
:020EC000FFCF62
:100EC200020304050607080931323341343536423C
:100ED200373839432A3023440C2A2A2A2A2A2A3824
:100EE2002C000000000000000000000000000000D4
:100EF20000000000000000000000000000000000F0
:100F020000000000000000000000000000000000DF
:100F120000000000000000000000000000000000CF
:100F220000000000000000000000000000000000BF
:100F320000000000000000000000000000000000AF
:100F4200000000000000000000000000000000009F
:100F5200000000000000000000000000000000008F
:100F6200000000000000000000000000000000007F
:100F7200000000000000000000000000000000006F
:100F820000000001000800400000010004050D0DF2
:100F92000E131516191A1C232526292A2C32340061
:00000001FF
